:020000040800F2
:1000000000000220CD310008912E0008972E000834
:100010009D2E0008A32E0008A92E00080000000055
:10002000000000000000000000000000AF2E0008EB
:10003000BD2E000800000000CB2E0008D92E0008BD
:100040001D3200081D3200081D3200081D32000854
:100050001D3200081D3200081D3200081D32000844
:100060001D3200081D3200081D3200081D32000834
:100070001D3200081D3200081D3200081D32000824
:100080001D3200081D3200081D3200081D32000814
:100090001D3200081D3200081D3200081D32000804
:1000A0001D3200081D3200081D3200081D320008F4
:1000B000E52E00081D3200081D3200081D32000820
:1000C0001D3200081D3200081D3200081D320008D4
:1000D0001D3200081D3200081D3200081D320008C4
:1000E0001D3200081D3200081D3200081D320008B4
:1000F0001D3200081D3200081D3200081D320008A4
:100100001D3200081D3200081D3200081D32000893
:100110001D3200081D3200081D3200081D32000883
:10012000F92E00081D3200081D3200081D3200089B
:100130001D3200081D3200081D3200081D32000863
:100140001D3200081D3200081D3200081D32000853
:100150001D3200081D3200081D3200081D32000843
:100160001D3200081D3200081D3200081D32000833
:100170001D3200081D3200081D320008000000007A
:080180001D3200081D320008C9
:1001880010B5054C237833B9044B13B10448AFF3C9
:1001980000800123237010BD200000200000000013
:1001A8000C7B000808B5034B1BB103490348AFF3A8
:1001B800008008BD00000000240000200C7B00081F
:1001C80081F0004102E000BF83F0004330B54FEA00
:1001D80041044FEA430594EA050F08BF90EA020F6D
:1001E8001FBF54EA000C55EA020C7FEA645C7FEA00
:1001F800655C00F0E2804FEA5454D4EB5555B8BF23
:100208006D420CDD2C4480EA020281EA030382EA93
:10021800000083EA010180EA020281EA0303362D25
:1002280088BF30BD11F0004F4FEA01314FF4801CF8
:100238004CEA113102D0404261EB410113F0004F0A
:100248004FEA03334CEA133302D0524263EB4303C1
:1002580094EA050F00F0A780A4F10104D5F1200E5F
:100268000DDB02FA0EFC22FA05F2801841F10001BA
:1002780003FA0EF2801843FA05F359410EE0A5F18E
:1002880020050EF1200E012A03FA0EFC28BF4CF0BF
:10029800020C43FA05F3C01851EBE37101F0004575
:1002A80007D54FF0000EDCF1000C7EEB00006EEB82
:1002B8000101B1F5801F1BD3B1F5001F0CD349080C
:1002C8005FEA30004FEA3C0C04F101044FEA445263
:1002D80012F5800F80F09A80BCF1004F08BF5FEAEA
:1002E800500C50F1000041EB045141EA050130BDCA
:1002F8005FEA4C0C404141EB0101013C28BFB1F5DC
:10030800801FE9D291F0000F04BF01460020B1FA26
:1003180081F308BF2033A3F10B03B3F120020CDAF9
:100328000C3208DD02F1140CC2F10C0201FA0CF0D7
:1003380021FA02F10CE002F11402D8BFC2F1200C3C
:1003480001FA02F120FA0CFCDCBF41EA0C019040F2
:10035800E41AA2BF01EB0451294330BD6FEA04043B
:100368001F3C1CDA0C340EDC04F11404C4F1200226
:1003780020FA04F001FA02F340EA030021FA04F338
:1003880045EA030130BDC4F10C04C4F1200220FA8F
:1003980002F001FA04F340EA0300294630BD21FACD
:1003A80004F0294630BD94F0000F83F4801306BF93
:1003B80081F480110134013D4EE77FEA645C18BF87
:1003C8007FEA655C29D094EA050F08BF90EA020F1E
:1003D80005D054EA000C04BF1946104630BD91EA16
:1003E800030F1EBF0021002030BD5FEA545C05D119
:1003F8004000494128BF41F0004130BD14F5800458
:100408003CBF01F5801130BD01F0004545F0FE41CB
:1004180041F470014FF0000030BD7FEA645C1ABF00
:10042800194610467FEA655C1CBF0B46024650EA37
:10043800013406BF52EA033591EA030F41F4002163
:1004480030BD00BF90F0000F04BF0021704730B5E9
:100458004FF4806404F132044FF000054FF00001BE
:1004680050E700BF90F0000F04BF0021704730B57F
:100478004FF4806404F1320410F0004548BF404254
:100488004FF000013EE700BF42004FEAE2014FEAA9
:1004980031014FEA02701FBF12F07F4393F07F4F84
:1004A80081F06051704732F07F4208BF704793F087
:1004B8007F4F04BF41F40021704730B54FF460749A
:1004C80001F0004521F000411CE700BF50EA01029D
:1004D80008BF704730B54FF000050AE050EA010246
:1004E80008BF704730B511F0004502D5404261EBB6
:1004F80041014FF4806404F132045FEA915C3FF4F7
:10050800D8AE4FF003025FEADC0C18BF03325FEA93
:10051800DC0C18BF033202EBDC02C2F1200300FA44
:1005280003FC20FA02F001FA03FE40EA0E0021FA69
:1005380002F11444BDE600BF70B54FF0FF0C4CF457
:10054800E06C1CEA11541DBF1CEA135594EA0C0F09
:1005580095EA0C0F00F0DEF82C4481EA030621EA44
:100568004C5123EA4C5350EA013518BF52EA03357F
:1005780041F4801143F4801338D0A0FB02CE4FF031
:100588000005E1FB02E506F00042E0FB03E54FF061
:100598000006E1FB03569CF0000F18BF4EF0010E59
:1005A800A4F1FF04B6F5007F64F5407404D25FEA55
:1005B8004E0E6D4146EB060642EAC62141EA555108
:1005C8004FEAC52040EA5E504FEACE2EB4F1FD0C4A
:1005D80088BFBCF5E06F1ED8BEF1004F08BF5FEAC8
:1005E800500E50F1000041EB045170BD06F000467A
:1005F80046EA010140EA020081EA0301B4EB5C0427
:10060800C2BFD4EB0C0541EA045170BD41F480111E
:100618004FF0000E013C00F3AB8014F1360FDEBF43
:10062800002001F0004170BDC4F10004203C35DA1F
:100638000C341BDC04F11404C4F1200500FA05F3A2
:1006480020FA04F001FA05F240EA020001F0004243
:1006580021F0004110EBD37021FA04F642EB0601B9
:100668005EEA430E08BF20EAD37070BDC4F10C04E3
:10067800C4F1200500FA04F320FA05F001FA04F2A7
:1006880040EA020001F0004110EBD37041F1000193
:100698005EEA430E08BF20EAD37070BDC4F120059E
:1006A80000FA05F24EEA020E20FA04F301FA05F206
:1006B80043EA020321FA04F001F0004121FA04F2AE
:1006C80020EA020000EBD3705EEA430E08BF20EA7E
:1006D800D37070BD94F0000F0FD101F000464000B8
:1006E80041EB010111F4801F08BF013CF7D041EA3A
:1006F800060195F0000F18BF704703F0004652003E
:1007080043EB030313F4801F08BF013DF7D043EA0E
:100718000603704794EA0C0F0CEA135518BF95EAC4
:100728000C0F0CD050EA410618BF52EA4306D1D14B
:1007380081EA030101F000414FF0000070BD50EA6A
:10074800410606BF1046194652EA430619D094EAF4
:100758000C0F02D150EA013613D195EA0C0F05D1DE
:1007680052EA03361CBF104619460AD181EA030132
:1007780001F0004141F0FE4141F470014FF00000EA
:1007880070BD41F0FE4141F4780170BD70B54FF085
:10079800FF0C4CF4E06C1CEA11541DBF1CEA135505
:1007A80094EA0C0F95EA0C0F00F0A7F8A4EB0504E7
:1007B80081EA030E52EA03354FEA013100F08880DE
:1007C8004FEA03334FF0805545EA131343EA1263A7
:1007D8004FEA022245EA111545EA10654FEA00265C
:1007E8000EF000419D4208BF964244F1FD0404F515
:1007F800407402D25B084FEA3202B61A65EB030571
:100808005B084FEA32024FF480104FF4002CB6EB2D
:10081800020E75EB030E22BFB61A754640EA0C00AD
:100828005B084FEA3202B6EB020E75EB030E22BFED
:10083800B61A754640EA5C005B084FEA3202B6EB2E
:10084800020E75EB030E22BFB61A754640EA9C00ED
:100858005B084FEA3202B6EB020E75EB030E22BFBD
:10086800B61A754640EADC0055EA060E18D04FEA7B
:10087800051545EA16754FEA06164FEAC30343EA1B
:1008880052734FEAC2025FEA1C1CC0D111F4801FE8
:100898000BD141EA00014FF000004FF0004CB6E7E1
:1008A80011F4801F04BF01430020B4F1FD0C88BF80
:1008B800BCF5E06F3FF6AFAEB5EB030C04BFB6EB8B
:1008C800020C5FEA500C50F1000041EB045170BD7E
:1008D8000EF0004E4EEA113114EB5C04C2BFD4EBAB
:1008E8000C0541EA045170BD41F480114FF0000E2F
:1008F800013C90E645EA060E8DE60CEA135594EAAB
:100908000C0F08BF95EA0C0F3FF43BAF94EA0C0FAD
:100918000AD150EA01347FF434AF95EA0C0F7FF422
:1009280025AF104619462CE795EA0C0F06D152EA76
:1009380003353FF4FDAE1046194622E750EA41065A
:1009480018BF52EA43067FF4C5AE50EA41047FF46B
:100958000DAF52EA43057FF4EBAE12E74A0011D21D
:1009680012F5001211D20DD56FF47873B3EB625201
:100978000ED44FEAC12343F0004343EA505323FA0D
:1009880002F070474FF00000704750EA013002D182
:100998004FF0FF3070474FF0000070474FEA4102B8
:1009A800B2F1E04324BFB3F5001CDCF1FE5C0DD9C5
:1009B80001F0004C4FEAC0024CEA5070B2F1004F0F
:1009C80040EB830008BF20F00100704711F0804F12
:1009D80021D113F13872BCBF01F00040704741F4D7
:1009E80080114FEA5252C2F11802C2F1200C10FADB
:1009F8000CF320FA02F018BF40F001004FEAC123BF
:100A08004FEAD32303FA0CFC40EA0C0023FA02F362
:100A18004FEA4303CCE77FEA625307D150EA013338
:100A28001EBF4FF0FE4040F44000704701F0004008
:100A380040F0FE4040F40000704700BF53B94AB987
:100A4800002908BF00281CBF4FF0FF314FF0FF30CE
:100A580000F070B9ADF1080C6DE904CE00F006F8AD
:100A6800DDF804E0DDE9022304B070472DE9F04722
:100A7800089E0D4604460F46002B4AD18A429446EA
:100A880065D9B2FA82F343B102FA03FCC3F120023A
:100A98009F4020FA02F217439C404FEA1C4E1FFA6F
:100AA8008CF5B7FBFEF1220C0EFB117742EA0742E8
:100AB80001FB05F090420AD91CEB020201F1FF3755
:100AC80080F01C81904240F2198102396244121A66
:100AD800A4B2B2FBFEF00EFB102244EA024400FB73
:100AE80005F5A5420AD91CEB040400F1FF3280F099
:100AF8000781A54240F204816444023840EA01407B
:100B0800641B00211EB1DC400023C6E90043BDE898
:100B1800F0878B4208D9002E00F0ED800021C6E94D
:100B280000050846BDE8F087B3FA83F1002949D1EA
:100B3800AB4202D3824200F2F880841A65EB0302CA
:100B480001201746002EE2D0C6E90047DFE702B9C8
:100B5800FFDEB2FA82F3002B40F090808A1A4FEA47
:100B68001C471FFA8CFE0121B2FBF7F507FB152085
:100B7800220C42EA00420EFB05F0904208D91CEB19
:100B8800020205F1FF3802D2904200F2CB804546BE
:100B9800121AA4B2B2FBF7F007FB102244EA02448F
:100BA8000EFB00FEA64508D91CEB040400F1FF3239
:100BB80002D2A64500F2BB801046A4EB0E0440EA20
:100BC80005409FE7C1F120078B4022FA07FC4CEA59
:100BD800030C05FA01F420FA07F3FD404FEA1C491B
:100BE8002343B5FBF9F81FFA8CFE09FB18551C0CBA
:100BF80044EA054408FB0EF5A54202FA01F200FAA0
:100C080001F00BD91CEB040408F1FF3A80F088804E
:100C1800A54240F28580A8F102086444641B9DB295
:100C2800B4FBF9F309FB134445EA044403FB0EFE45
:100C3800A64508D91CEB040403F1FF356CD2A64580
:100C48006AD9023B644443EA0843A3FB0295A4EB38
:100C58000E04AC42C846AE4656D353D056B1B0EB9C
:100C6800080264EB0E0404FA07F7CA40CC401743A5
:100C7800C6E9007418460021BDE8F087C3F12001D9
:100C880002FA03FC20FA01F225FA01F19D402A43F9
:100C98004FEA1C471FFA8CFEB1FBF7F007FB101553
:100CA800110C41EA054100FB0EF58D4204FA03F4EC
:100CB80008D91CEB010100F1FF382FD28D422DD944
:100CC80002386144491B92B2B1FBF7F507FB1511D5
:100CD80042EA014205FB0EF1914208D91CEB0202DF
:100CE80005F1FF3816D2914214D9023D6244521AD6
:100CF80045EA004138E73146304608E73946E6E636
:100D08001046FBE64845A9D2B9EB020865EB0C0E84
:100D1800013BA3E74546EAE72B4694E74046D1E77F
:100D2800D0467BE7023D624432E708460AE764445E
:100D3800023842E7704700BF80B584B000AF3B4639
:100D480000221A605A609A60DA603D4B3D4A1A6088
:100D58003B4B00225A603A4B00229A60384B0122E2
:100D68001A61374B00221A76354B002283F820206F
:100D7800334B0022DA62324B334A9A62304B0022FC
:100D8800DA602F4B0522DA612D4B002283F83020E0
:100D98002B4B01225A612A4802F0D4FA0346002B51
:100DA80001D001F06DFE08233B6001237B60002326
:100DB800BB603B461946224802F036FC0346002B2E
:100DC80001D001F05DFE09233B6002237B603B46B6
:100DD80019461B4802F028FC0346002B01D001F0FD
:100DE8004FFE0A233B6003237B603B4619461448A9
:100DF80002F01AFC0346002B01D001F041FE0B2340
:100E08003B6004237B603B4619460D4802F00CFC0E
:100E18000346002B01D001F033FE0C233B60052371
:100E28007B603B461946064802F0FEFB0346002B52
:100E380001D001F025FE00BF1037BD4680BD00BFC0
:100E48003C000020002001400100000F80B58AB05E
:100E580000AF786007F1140300221A605A609A60A4
:100E6800DA601A617B681B683C4A934271D100239F
:100E78003B613B4B5B6C3A4A43F480735364384B99
:100E88005B6C03F480733B613B690023FB60344B6C
:100E98001B6B334A43F004031363314B1B6B03F0A2
:100EA8000403FB60FB680023BB602D4B1B6B2C4AC3
:100EB80043F0020313632A4B1B6B03F00203BB606E
:100EC800BB6807237B610323BB610023FB6107F138
:100ED80014031946234803F0C9FA03237B6103234B
:100EE800BB610023FB6107F1140319461E4803F098
:100EF800BDFA1E4B1E4A1A601C4B00225A601B4B3F
:100F080000229A60194B0022DA60184B4FF4806275
:100F18001A61164B4FF400625A61144B4FF4005299
:100F28009A61124B4FF48072DA61104B00221A62F8
:100F38000E4B00225A620D4802F028FF0346002B90
:100F480001D001F09DFD7B68084A9A63074A7B68D7
:100F5800936300BF2837BD4680BD00BF0020014015
:100F680000380240000802400004024084000020CB
:100F78001064024080B500AF01220821024803F046
:100F880011FC00BF80BD00BF000C024080B584B0DA
:100F980000AF002208212F4803F004FC0122082199
:100FA8002C4803F0FFFB0A2302222B492B4805F0AB
:100FB8004AF80023FB604FF400437B8100237B60E9
:100FC8003FE07B68002B06DB7B68032B03DC7B6838
:100FD8000433FB6018E07B68032B07DD7B68072B75
:100FE80004DC7B68C3F10703FB600DE07B68072B1B
:100FF80006DD7B680B2B03DC7B680433FB6003E0B6
:101008007B68C3F11703FB60134B1A887B89134075
:101018009BB2002B05D0124AFB68002122F813105E
:1010280009E00F4AFB6832F81330013399B20C4AD1
:10103800FB6822F813107B895B087B817B6801338E
:101048007B607B680F2BBCDD00BF00BF1037BD463F
:1010580080BD00BF000C02400401002048020020AF
:10106800E400002080B400AF054BDB88012B01D1E0
:10107800012300E000231846BD465DF8047B704755
:10108800E400002080B400AF054BDB89012B01D1BF
:10109800012300E000231846BD465DF8047B704735
:1010A800E400002080B500AF0021024805F00CFDE7
:1010B80000BF80BDE802002080B483B000AF0346C3
:1010C800FB71074AFB791370054B1A78054B1B68AF
:1010D8005A6300BF0C37BD465DF8047B704700BFFC
:1010E80007010020E802002080B582B000AF00238D
:1010F8007B600C4B1B6B0B4A43F480031363094B57
:101108001B6B03F480037B607B680022002138207E
:1011180002F005FE382002F01EFE00BF0837BD466B
:1011280080BD00BF0038024080B500AF1E2002F02D
:1011380025F803461A46174B1A70162002F01EF8B7
:1011480003461A46134B5A70152002F017F8034647
:101158001A46104B9A70062002F010F803461A46F9
:101168000C4BDA700F2002F009F803461A46094BB7
:101178001A71092002F002F803461A46054B5A7103
:10118800172001F0FBFF03461A46024B9A7100BF75
:1011980080BD00BF0C01002080B584B004AF0A23D5
:1011A800029307230193254B009301230022D021AA
:1011B800234803F055FC214B1B78184601F0C4FF67
:1011C80003461A461F4B1A701C4B5B78184601F0F1
:1011D800BBFF03461A461C4B1A70184B9B781846DF
:1011E80001F0B2FF03461A46184B1A70134BDB780E
:1011F800184601F0A9FF03461A46154B1A700F4B03
:101208001B79184601F0A0FF03461A46114B1A70C5
:101218000A4B5B79184601F097FF03461A460E4BB6
:101228001A70064B9B79184601F08EFF03461A4642
:101238000A4B1A7000BFBD4680BD00BF0C010020DC
:101248007001002015010020140100201301002066
:1012580017010020160100201801002019010020A4
:1012680080B58EB000AF07F11C0300221A605A60E7
:101278009A60DA601A615A619A613B4600221A60E4
:101288005A609A60DA601A615A619A612F4B4FF07E
:1012980020421A602D4B2E4A5A602C4B00229A602D
:1012A8002A4B0022DA60294B00221A61274B1022B0
:1012B8005A61264B00229A61244B0022DA61234BA3
:1012C80000221A62214B00225A62204B4FF48052AE
:1012D8009A621E4B0022DA621C4B4FF480421A635A
:1012E8001A4B00225A63194B00229A63174B0022AB
:1012F8005A640F23FB610F233B623C237B6200236C
:10130800BB621023FB6211233B6300237B6308232A
:101318003B600F237B600923BB600023FB60102325
:101328003B6111237B610023BB613A4607F11C0333
:101338001946064805F06AFA0346002B01D001F069
:101348009FFB00BF3837BD4680BD00BF1C01002091
:10135800040100A080B586B000AF3B1D00221A60D2
:101368005A609A60DA601A611C4B1B68002B31D1F5
:101378001A4B01221A6000233B60194B9B6B184AD9
:1013880043F001039363164B9B6B03F001033B602F
:101398003B684FF688737B600223BB600023FB60C9
:1013A80003233B610C237B613B1D19460D4803F069
:1013B8005DF84CF2B3737B600223BB600023FB60D3
:1013C80003233B610C237B613B1D1946064803F050
:1013D8004DF800E000BF1837BD4680BD6C01002005
:1013E8000038024000100240000C024080B582B074
:1013F80000AF7860FFF7AEFF00BF0837BD4680BD7D
:1014080080B58EB000AF07F1240300221A605A603D
:101418009A60DA601A6100233B62764B1B6B754A4F
:1014280043F010031363734B1B6B03F010033B6211
:101438003B6A0023FB616F4B1B6B6E4A43F004034E
:1014480013636C4B1B6B03F00403FB61FB69002304
:10145800BB61684B1B6B674A43F020031363654B02
:101468001B6B03F02003BB61BB6900237B61614BED
:101478001B6B604A43F0800313635E4B1B6B03F0E6
:1014880080037B617B6900233B615A4B1B6B594A84
:1014980043F001031363574B1B6B03F001033B61DC
:1014A8003B690023FB60534B1B6B524A43F002031A
:1014B8001363504B1B6B03F00203FB60FB680023B4
:1014C800BB604C4B1B6B4B4A43F008031363494BFF
:1014D8001B6B03F00803BB60BB6800237B60454BB4
:1014E8001B6B444A43F040031363424B1B6B03F0EE
:1014F80040037B607B68002270213F4803F052F96B
:1015080000224FF400513D4803F04CF900224021DD
:101518003B4803F047F900224FF48071394803F043
:1015280041F900220821384803F03CF970237B6216
:101538000123BB620023FB6200233B6307F1240302
:1015480019462D4802F092FF4FF400537B620123A5
:10155800BB620023FB6200233B6307F124031946A7
:10156800264802F083FFC0237B620023BB6200236E
:10157800FB6207F124031946224802F077FF302363
:101588007B620023BB620023FB6207F12403194638
:101598001A4802F06BFF40237B620123BB620023E1
:1015A800FB6200233B6307F124031946144802F049
:1015B8005DFF4FF480737B620123BB620023FB62F3
:1015C80000233B6307F1240319460E4802F04EFF3F
:1015D80008237B620123BB620023FB6200233B6379
:1015E80007F124031946084802F040FF00BF3837C6
:1015F800BD4680BD0038024000100240000802408D
:101608000018024000000240000C024080B500AF04
:10161800124B134A1A60114B124A5A600F4B0022A0
:101628009A600E4B0022DA600C4B4FF480421A612C
:101638000A4B00225A61094B00229A61074B00228B
:10164800DA61064B00221A62044803F0C5F8034623
:10165800002B01D001F014FA00BF80BD70010020FA
:1016680000540040A086010080B58AB000AF7860C1
:1016780007F1140300221A605A609A60DA601A614E
:101688007B681B68194A93422BD100233B61184B96
:101698001B6B174A43F002031363154B1B6B03F0D4
:1016A80002033B613B69C0237B611223BB610023BA
:1016B800FB6103233B6204237B6207F11403194691
:1016C8000C4802F0D3FE0023FB60094B1B6C084A50
:1016D80043F400131364064B1B6C03F40013FB6004
:1016E800FB6800BF2837BD4680BD00BF00540040DE
:1016F800003802400004024080B483B000AF0346C3
:10170800FB80044AFB88138000BF0C37BD465DF898
:10171800047B7047FEFF0F6080B483B000AF0346C0
:10172800FB80044AFB88538000BF0C37BD465DF838
:10173800047B7047FEFF0F6080B483B000AF064B98
:101748005B889BB2FB80FB889BB218460C37BD4672
:101758005DF8047B704700BFFEFF0F6090B583B053
:1017680000AF0446084611461A462346FB80034646
:10177800BB800B467B8013463B802A20FFF7BCFFCB
:10178800FB881B0A9BB21846FFF7C6FFFB88DBB233
:101798009BB21846FFF7C0FF7B881B0A9BB218460E
:1017A800FFF7BAFF7B88DBB29BB21846FFF7B4FF9E
:1017B8002B20FFF7A1FFBB881B0A9BB21846FFF737
:1017C800ABFFBB88DBB29BB21846FFF7A5FF3B888F
:1017D8001B0A9BB21846FFF79FFF3B88DBB29BB200
:1017E8001846FFF799FF2C20FFF786FF00BF0C373C
:1017F800BD4690BD80B584B000AF0346FB80154B55
:101808001B88013B9AB2134B5B88013B9BB20021BA
:101818000020FFF7A3FF0023FB8111E00023BB8119
:1018280006E0FB881846FFF777FFBB890133BB81C9
:10183800084B5B88BA899A42F3D3FB890133FB8151
:10184800044B1B88FA899A42E8D300BF00BF1037BF
:10185800BD4680BDC401002080B582B000AF0346FC
:10186800FB800B46BB8013467B80BB88FA88B9880F
:10187800F888FFF773FF7B881846FFF74DFF00BF16
:101888000837BD4680BD90B58DB000AF0446084608
:1018980011461A462346FB800346BB800B467B80D5
:1018A80013463B800023BB6200237B627A88FB8857
:1018B800D31A3B623A88BB88D31AFB61FB88FB606A
:1018C800BB88BB603B6A002B02DD01237B610BE018
:1018D8003B6A002B02D100237B6105E04FF0FF3308
:1018E8007B613B6A5B423B62FB69002B02DD0123A3
:1018F8003B610BE0FB69002B02D100233B6105E053
:101908004FF0FF333B61FB695B42FB613A6AFB695D
:101918009A4202DD3B6ABB6101E0FB69BB610023BF
:10192800FB852BE0FB689BB2BA6891B2B7F8402000
:101938001846FFF791FFBA6A3B6A1344BB627A6A9A
:10194800FB6913447B62BA6ABB699A4207DDBA6ACB
:10195800BB69D31ABB62FA687B691344FB607A6A75
:10196800BB699A4207DD7A6ABB69D31A7B62BA6897
:101978003B691344BB60FB8D0133FB85FB8DBA6962
:101988009A42CFDA00BF00BF3437BD4690BD000091
:1019980090B587B000AF0446084611461A4623465C
:1019A800FB800346BB800B46FB7013463B8000233D
:1019B8007B75FB883B8297F82C305B08FB73FB7BBD
:1019C800DB08DBB21A46FB7B03F00703DBB2002B14
:1019D80014BF01230023DBB213449AB297F82C30CA
:1019E8009BB212FB03F3BB81FB78203BFB70FB7BB4
:1019F8009AB2FB8813449BB2013B9CB297F82C30F7
:101A08009AB2BB8813449BB2013B9BB2B988F88851
:101A18002246FFF7A3FE00237B827AE097F82C305A
:101A28000C2B28D097F82C30102B08D1FA787B8A09
:101A38003C4912010A4413441B78FB751BE097F8D4
:101A48002C30182B0BD1FA78798A374813465B006B
:101A580013441B0103440B441B78FB750BE097F8F8
:101A68002C30202B5AD1FA787B8A304992010A44CB
:101A780013441B78FB750023BB7544E097F830309E
:101A8800002B20D1FA7DBB7D42FA03F303F001035A
:101A9800002B04D03B881846FFF73EFE03E03B8D41
:101AA8001846FFF739FE7B7D01337B757B7DFA7B1A
:101AB800B3FBF2F101FB02F29B1ADBB2002B1FD140
:101AC80000237B7522E0FA7DBB7D42FA03F303F025
:101AD8000103002B05D03A88B988FB881846FFF720
:101AE800BBFEFB880133FB80FA883B8AD21AFB7B5A
:101AF8009A4205D13B8AFB80BB880133BB8005E055
:101B0800BB7D0133BB75BB7D072BB7D97B8A0133FE
:101B18007B827A8ABB899A4280D300E000BF1C3757
:101B2800BD4690BD947B000884810008549300084A
:101B380080B485B000AF03460A46FB711346BB71FB
:101B48000123FB6004E0FA79FB6802FB03F3FB6006
:101B5800BB795A1EBA71002BF5D1FB6818461437A9
:101B6800BD465DF8047B704790B589B004AF044664
:101B7800084611461A462346FB800346BB800B469F
:101B88007B8013467B700023BB7397F828305B0873
:101B98007B730023FB7359E07C887A78FB7BD31A2C
:101BA800DBB2013BDBB219460A20FFF7C1FF03464F
:101BB800B4FBF3F12A4BA3FB0123DA0813469B007D
:101BC80013445B00CA1A13463B73BB7B002B21D11D
:101BD800FA7B7B78013B9A421CDA3B7B002B17D1BE
:101BE800FB7B9AB27B7B9BB212FB03F39AB2FB8816
:101BF800134498B23A8CB9880023029397F8283096
:101C08000193BB8C009313462022FFF7C1FE1AE014
:101C18000123BB73FB7B9AB27B7B9BB212FB03F362
:101C28009AB2FB88134498B23B7B3033DAB23C8CCF
:101C3800B9880023029397F828300193BB8C00934E
:101C48002346FFF7A5FEFB7B0133FB73FA7B7B780A
:101C58009A42A1D300BF00BF1437BD4690BD00BF54
:101C6800CDCCCCCC90B58BB004AF0446084687EDFC
:101C7800020A11461A462346FB810346BB810B46DE
:101C8800FB711346BB8097F82C305B08BB75D7ED0A
:101C9800027A9FED367A67EE877AFCEEE77A17EEDE
:101CA800903ABB820023FB7557E0BC8AFA79FB7D2A
:101CB800D31ADBB2013BDBB219460A20FFF738FF23
:101CC8000346B4FBF3F12A4BA3FB0123DA081346BE
:101CD8009B0013445B00CA1A1346FB74FA7DFB7918
:101CE800023B9A421DD1FB79023B9AB2BB7D9BB263
:101CF80012FB03F39AB2FB89134498B2BA88B989E4
:101D08000023029397F82C3001933B8D00931346E0
:101D18002E22FFF73DFEFB7D0133FB75FB79013376
:101D2800FB71FB7D9AB2BB7D9BB212FB03F39AB2A7
:101D3800FB89134498B2FB7C3033DAB2BC88B9898A
:101D48000023029397F82C3001933B8D0093234690
:101D5800FFF71EFEFB7D0133FB75FA7DFB799A4286
:101D6800A3D300BF00BF1C37BD4690BD0000C842CA
:101D7800CDCCCCCC80B483B000AF0346FB71FB79EB
:101D88001B09DBB203F00303DBB2002B07D00A4BBD
:101D98004FF4A0721A80084BF0225A8006E0064BD6
:101DA800F0221A80044B4FF4A0725A8000BF0C37FF
:101DB800BD465DF8047B7047C401002080B500AFC4
:101DC80000224FF40051AA4802F0ECFC4FF4FA70DC
:101DD80001F094FA01224FF40051A54802F0E2FC08
:101DE8004FF4FA7001F08AFA0020FFF7C3FFD320FE
:101DF800FFF782FCFFF7A0FC03461A469D4B9A802A
:101E0800FFF79AFC03461A469A4B9A80FFF794FC10
:101E180003461A46974B9A80964B9B881B029AB2A8
:101E2800944B9A80FFF788FC03461A46914B9B888F
:101E380013439AB28F4B9A80CF20FFF75DFC0020A6
:101E4800FFF76AFCC120FFF767FC3020FFF764FC4E
:101E5800ED20FFF751FC6420FFF75EFC0320FFF73D
:101E68005BFC1220FFF758FC8120FFF755FCE820A7
:101E7800FFF742FC8520FFF74FFC1020FFF74CFCD2
:101E88007A20FFF749FCCB20FFF736FC3920FFF713
:101E980043FC2C20FFF740FC0020FFF73DFC3420DA
:101EA800FFF73AFC0220FFF737FCF720FFF724FC86
:101EB8002020FFF731FCEA20FFF71EFC0020FFF787
:101EC8002BFC0020FFF728FCC020FFF715FC1B2087
:101ED800FFF722FCC120FFF70FFC0120FFF71CFCD5
:101EE800C520FFF709FC3020FFF716FC3020FFF76C
:101EF80013FCC720FFF700FCB720FFF70DFC3620C6
:101F0800FFF7FAFB0820FFF707FC3A20FFF7F4FB7E
:101F18005520FFF701FCB120FFF7EEFB0020FFF78B
:101F2800FBFB1A20FFF7F8FBB620FFF7E5FB0A20BA
:101F3800FFF7F2FBA220FFF7EFFBF220FFF7DCFB35
:101F48000020FFF7E9FB2620FFF7D6FB0120FFF76B
:101F5800E3FBE020FFF7D0FB0F20FFF7DDFB2A2093
:101F6800FFF7DAFB2820FFF7D7FB0820FFF7D4FBA1
:101F78000E20FFF7D1FB0820FFF7CEFB5420FFF718
:101F8800CBFBA920FFF7C8FB4320FFF7C5FB0A20BE
:101F9800FFF7C2FB0F20FFF7BFFB0020FFF7BCFBDA
:101FA8000020FFF7B9FB0020FFF7B6FB0020FFF782
:101FB800B3FBE120FFF7A0FB0020FFF7ADFB1520E6
:101FC800FFF7AAFB1720FFF7A7FB0720FFF7A4FBE3
:101FD8001120FFF7A1FB0620FFF79EFB2B20FFF740
:101FE8009BFB5620FFF798FB3C20FFF795FB05204D
:101FF800FFF792FB1020FFF78FFB0F20FFF78CFBFA
:102008003F20FFF789FB3F20FFF786FB0F20FFF7F4
:1020180083FB2B20FFF770FB0020FFF77DFB0020E0
:10202800FFF77AFB0120FFF777FB3F20FFF774FBF0
:102038002A20FFF761FB0020FFF76EFB0020FFF767
:102048006BFB0020FFF768FBEF20FFF765FB112013
:10205800FFF752FB782001F051F92920FFF74CFBDC
:1020680001224FF48071044802F09CFB00BF80BD40
:1020780000080240C40100200000024090B58BB067
:1020880004AFBA601A460346FB810B46BB81134670
:10209800FB80FB89BB820023FB7548E0FB7D002B9E
:1020A80045D1FA89264B1B88194697F82C305B08CE
:1020B800DBB2CB1A9A423FDCBA89214B5B881946BE
:1020C80097F82C30CB1A9A4236DCBB681B78802BE9
:1020D80002D90123FB752AE0BB681B780D2B0BD1B5
:1020E80097F82C309AB2BB891344BB81BB8AFB8119
:1020F800BB680133BB6017E0BB681A78FC88B989F4
:10210800F88997F83030029397F82C3001933B8D7B
:1021180000932346FFF73CFC97F82C305B08DBB2B2
:102128009AB2FB891344FB81BB680133BB60BB686F
:102138001B78002BB2D100E000BF1C37BD4690BD14
:10214800C401002080B500AF01224021024802F0FE
:1021580029FB00BF80BD00BF0018024080B500AF5A
:102168003F4B1B88DBB29AB23D4B1A803D4B1B6834
:102178003D4AD35C1B021AB2394B1B881BB213436E
:102188001BB29AB2364B1A80364B1B68032B47D8C2
:1021980001A252F823F000BFB1210008CF210008A6
:1021A800ED2100080B2200082D4B1B8843F0B003DB
:1021B8009AB22B4B1A802A4B1B8823F040039AB201
:1021C800274B1A802DE0264B1B8843F0D0039AB288
:1021D800234B1A80224B1B8823F020039AB2204BF2
:1021E8001A801EE01E4B1B8843F0E0039AB21C4B7A
:1021F8001A801B4B1B8823F010039AB2184B1A80C5
:102208000FE0174B1B8843F070039AB2144B1A80E7
:10221800134B1B8823F080039AB2114B1A8000E0FD
:1022280000BF104B1B6801335A4203F0030302F04E
:10223800030258BF53420B4A1360002240210B4847
:1022480002F0B0FA012302220549094803F0BFFD54
:1022580001224021054802F0A5FA00BF80BD00BF59
:102268000E000020CC0100200000002000180240D1
:102278004802002080B485B000AFF860B96013460A
:10228800FB71FB68002B0EDBFB68092B0BDC094A92
:10229800FB6813441A78FB79D31AD9B2064ABB688B
:1022A80013440A461A7000BF1437BD465DF8047B14
:1022B800704700BF040000200000002080B483B0F5
:1022C80000AF0346FB71FB79012B07D10A4B1B8832
:1022D80023F008039AB2084B1A8006E0064B1B88C5
:1022E80043F008039AB2044B1A8000BF0C37BD466E
:1022F8005DF8047B704700BF0E000020000000005E
:1023080080B582B000AF00F087FF00F0BDF8FFF79E
:1023180077F8FEF7E9FE00F011FDFEF7A1FFFFF7E1
:1023280075F900F04DFE00F0FFFDFEF705FD00F029
:1023380037F94F4B5B88012B11D10121052000F0A3
:102348009BFCFFF70BFF4B4B1B78C3F10103DAB281
:10235800484B1A70474B1B781846FFF7AFFF444BA2
:102368001B88012B09D10021052000F085FC00F015
:1023780043F900F079F900F025FB3D4B9B88012BD0
:1023880008D102214FF47A7000F076FC00F05AFA76
:1023980000F09EFA364BDB88012B18D103214FF44D
:1023A8007A7000F069FC344B1B88462B0CD9334BF0
:1023B8001B78C3F10103DAB2304B1A702F4B1B782C
:1023C800184600F0E7FA02E0002000F0E3FA284B94
:1023D8001B89012BADD104214FF47A7000F04CFC1D
:1023E8004FF6FF70FFF706FA12237B6019E07B684F
:1023F800013B234A32F823300A3399B2204A7B68DA
:1024080022F823107B68013B1D4A9B00134459881E
:102418001B4A7B689B0013440A465A807B68013B31
:102428007B607B68002BE2DC154B0A221A80154B77
:102438001B681846FEF728F84FF000024FF080435B
:10244800FEF7A4F902460B4607A1D1E90001FDF702
:10245800BBFE02460B4610461946FEF77FFA0346B6
:102468009AB2074B5A8064E70000000000C072402F
:1024780030020020CA0100202E020020080100209E
:10248800D00100202802002080B594B000AF07F1E9
:10249800200330220021184605F008FB07F10C0341
:1024A80000221A605A609A60DA601A610023BB60E1
:1024B800284B1B6C274A43F080531364254B1B6C35
:1024C80003F08053BB60BB6800237B60224B1B6812
:1024D800214A43F4804313601F4B1B6803F4804375
:1024E8007B607B6802233B620123FB6210233B6312
:1024F8000223BB630023FB6308233B64A8237B649C
:102508000223BB640423FB6407F12003184602F08E
:1025180051FF0346002B01D000F0B2FA0F23FB60F5
:1025280002233B6100237B614FF4A053BB614FF44E
:10253800A053FB6107F10C030521184603F0B2F91B
:102548000346002B01D000F09BFA00BF5037BD4670
:1025580080BD00BF003802400070004080B483B0E6
:1025680000AF00237B600EE00C4A7B680A2122F84A
:1025780023100A4A7B689B0013444FF496725A80D2
:102588007B6801337B607B68122BEDDD00BF00BFE9
:102598000C37BD465DF8047B704700BFD0010020B2
:1025A80080B500AF00F05EFBFEF7BEFDFEF7E2FC73
:1025B800FFF704FC00F06AFAFEF774FDFFF7C2FDAE
:1025C800FFF7CCFF0021052000F056FB0121052074
:1025D80000F052FB02214FF47A7000F04DFB03210A
:1025E8004FF47A7000F048FB04214FF47A7000F041
:1025F80043FB00BF80BD000080B500AFFEF7C6FCFE
:10260800FEF730FD0346002B0FD0154B1B78013326
:10261800144A82FB03125111DA178A1A642101FB4A
:1026280002F29A1AD2B20E4B1A70FEF72BFD03462D
:10263800002B13D00A4B1B78002B0FD0084B1B78AC
:10264800013B084A82FB03125111DA178A1A6421E6
:1026580001FB02F29A1AD2B2014B1A7000BF80BD78
:10266800060100201F85EB5180B584B004AF00231C
:102678000293102301934FF6FF7300934FF47843AE
:10268800644A0A210A20FFF7F9FC634B1B789AB2C7
:10269800102302934FF6FF7301934FF4784300938E
:1026A80002230A218220FFF75FFA002302931023F6
:1026B80001934FF6FF7300934FF47843574A0A216A
:1026C800C820FFF7DBFC00230293102301934FF689
:1026D800FF7300934FF47843514A1E210A20FFF7F5
:1026E800CDFC504BD3ED007A102301934FF6FF73C6
:1026F80000934FF478430522B0EE670A1E2182202A
:10270800FFF7B0FA00230293102301934FF6FF73EB
:1027180000934FF47843444A1E21C820FFF7AEFCCB
:1027280000230293102301934FF6FF7300934FF495
:1027380078433E4A32210A20FFF7A0FC3C4B1A6836
:1027480000230293102301934FF6FF7300934FF475
:10275800784332218220FFF791FC00230293102353
:1027680001934FF6FF7300934FF47843314A4621A3
:102778000A20FFF783FC00F057FAF0EE407A1023A6
:1027880001934FF6FF7300934FF478430422B0EEA1
:10279800670A46218220FFF765FA00230293102377
:1027A80001934FF6FF7300934FF47843224A462172
:1027B800C820FFF763FC00230293102301934FF610
:1027C800FF7300934FF478431C4A5A210A20FFF7FD
:1027D80055FC1B4B1A88102302934FF6FF73019385
:1027E8004FF47843009302235A218220FFF7BCF963
:1027F80000230293102301934FF6FF7300934FF4C5
:102808007843064A5A21C820FFF738FC00BFBD4666
:1028180080BD00BF247B000806010020307B000833
:10282800347B0008280200203C7B0008447B000819
:10283800100000204C7B00085C7B0008647B0008CB
:102848002E02002080B500AFFEF7A6FC1D4B1B78BA
:102858001D4AA2FB0323DB08DBB200220021184635
:10286800FFF708FD174B1A78174BA3FB0213D9087B
:102878000B469B000B445B00D31ADBB200220121FC
:102888001846FFF7F7FC114B1B780F4AA2FB0323EE
:10289800DB08DBB2002202211846FFF7EBFC0B4BEA
:1028A8001A78094BA3FB0213D9080B469B000B446B
:1028B8005B00D31ADBB2002203211846FFF7DAFCCB
:1028C80000BF80BD13010020CDCCCCCC140100206A
:1028D80080B52DED028B00AF00F0E6F800F048F966
:1028E800B0EE408A00F008F9F0EE407A68EE277AF8
:1028F800214BC3ED007A00F0E5F803461A461F4B5A
:102908001A801E4B1B88B3F5006F03D21C4B1D4A5F
:102918001A6002E01A4B1C4A1A6000F0DFF80346FE
:1029280007EE903AF8EE677A17EE900AFDF7ACFDDD
:102938000FA3D3E90023FDF729FF02460B461046F3
:1029480019464FF00002114BFDF7F6FD02460B4603
:1029580010461946FEF702F803469AB20C4B1A8045
:1029680000BFBD46BDEC028B80BD00BFAFF3008049
:102978000000000000FEAF40280200202C020020CA
:1029880010000020707B0008787B00080000594088
:102998002E02002080B582B000AF0346FB71FB79A0
:1029A800002B03D10020FEF787FB04E0044B1B78C3
:1029B8001846FEF781FB00BF0837BD4680BD00BF43
:1029C8000601002090B587B004AF002302931023BE
:1029D80001934FF6FF7300930023264AB4210A207F
:1029E800FFF74CFB002300934FF496730A22C8218B
:1029F8000A20FEF748FF00230293102301934FF6A5
:102A0800FF73009300231C4A4FF49171C820FFF70D
:102A180035FB002300934FF49673BE224FF4967152
:102A28000A20FEF730FF00237B601AE0134A7B6818
:102A380032F82300114A7B689B00134459887B684D
:102A480001330E4A32F823207B6801330B4C9B007C
:102A580023445B8800240094FEF715FF7B6801334C
:102A68007B607B68112BE1DD00BF00BF0C37BD46E2
:102A780090BD00BF807B0008887B0008D001002043
:102A880080B400AF72B600BFFEE7000080B500AFAB
:102A980005220349034800F099FC00BF80BD00BF30
:102AA8001C0200203C00002080B500AF052203492D
:102AB800034800F08BFC00BF80BD00BF1C02002053
:102AC8003C00002080B400AF034B9B881846BD46ED
:102AD8005DF8047B704700BF1C02002080B400AF83
:102AE800034BDB881846BD465DF8047B704700BF82
:102AF8001C0200200000000080B500AF1A4B1B88A4
:102B080007EE903AF8EE677A17EE900AFDF7BCFCEC
:102B180011A3D3E90023FDF70FFD02460B4610462B
:102B280019464FF00002114BFDF706FD02460B4611
:102B3800104619460AA3D3E90023FDF727FE0246EB
:102B48000B4610461946FDF729FF034607EE903A53
:102B5800B0EE670A80BD00BF6666666666660A40B4
:102B6800CDCCCCCCAC08B9401C02002000002840D9
:102B780080B500AF284B5B8807EE903AF8EE677A8D
:102B880017EE900AFDF780FC1FA3D3E90023FDF799
:102B9800D3FC02460B46104619464FF000021F4B65
:102BA800FDF7CAFC02460B461046194618A3D3E99E
:102BB8000023FDF7EBFD02460B46104619464FF081
:102BC8000002174BFDF700FB02460B46104619465C
:102BD8004FF00002134BFDF7AFFC02460B461046C0
:102BE80019464FF000020E4BFDF7D0FD02460B468A
:102BF80010461946FDF7D2FE034607EE903AB0EEAE
:102C0800670A80BDAFF300806666666666660A403E
:102C180048E17A14EEB2A4401C02002000408F4024
:102C2800000004400000144080B400AF0A4B1B8928
:102C380007EE903AF8EE677A9FED087A67EE877AA2
:102C48009FED077AC7EE876AF0EE667AB0EE670AFC
:102C5800BD465DF8047B70471C0200200000A543B8
:102C680000F07F4580B500AF024803F063FE00BF67
:102C780080BD00BFA002002080B483B000AF03462F
:102C88000A46FB801346BB80BB880749FA8821F8AF
:102C98001320BB88054A002122F8131000BF0C3707
:102CA800BD465DF8047B70473C02002030020020DE
:102CB80080B483B000AF0346FB80FB880F4A32F82C
:102CC8001330002B13D0FB880C4A32F81320013A3A
:102CD80091B20A4A22F81310FB88084A32F81330D6
:102CE800002B04D1FB88064A012122F8131000BFEB
:102CF8000C37BD465DF8047B704700BF3C020020DE
:102D08003002002080B582B000AF78607B681B6815
:102D1800B3F1804F0ED10020FFF7CAFF0120FFF763
:102D2800C7FF0220FFF7C4FF0320FFF7C1FF0420FD
:102D3800FFF7BEFF00BF0837BD4680BD80B500AFB6
:102D4800174B184A1A60164B4FF482725A60144B8C
:102D580000229A60124B0022DA60114B00221A619D
:102D68000F4B00225A610E4B4FF400729A610C4BC4
:102D78000022DA610A4B00221A62094B00225A62C9
:102D8800074B00229A62064B0A22DA62044802F0D4
:102D980095FF0346002B01D0FFF772FE00BF80BDF0
:102DA800480200200030014080B58AB000AF78604A
:102DB80007F1140300221A605A609A60DA601A61F7
:102DC8007B681B68194A93422BD100233B61184B3F
:102DD8005B6C174A43F480535364154B5B6C03F4E4
:102DE80080533B613B690023FB60114B1B6B104A0E
:102DF80043F0020313630E4B1B6B03F00203FB60EB
:102E0800FB6838237B610223BB610023FB6103233A
:102E18003B6205237B6207F114031946054801F05C
:102E280025FB00BF2837BD4680BD00BF00300140EC
:102E3800003802400004024080B483B000AF002391
:102E48007B60104B5B6C0F4A43F4804353640D4B1B
:102E58005B6C03F480437B607B6800233B60094B19
:102E68001B6C084A43F080531364064B1B6C03F039
:102E780080533B603B6800BF0C37BD465DF8047B60
:102E8800704700BF0038024080B400AFFEE780B44E
:102E980000AFFEE780B400AFFEE780B400AFFEE706
:102EA80080B400AFFEE780B400AF00BFBD465DF858
:102EB800047B704780B400AF00BFBD465DF8047B5B
:102EC800704780B400AF00BFBD465DF8047B704713
:102ED80080B500AF00F0F2F900BF80BD80B500AF4B
:102EE800024803F0B9FE00BF80BD00BFA002002069
:102EF80080B500AF024801F04FF800BF80BD00BFA9
:102F08008400002080B400AF064BD3F88830054A0F
:102F180043F47003C2F8883000BFBD465DF8047BF7
:102F2800704700BF00ED00E080B586B000AF07F144
:102F3800080300221A605A609A60DA603B46002251
:102F48001A605A601D4B4FF080421A601B4B40F2CA
:102F580047325A60194B00229A60184B6322DA6094
:102F6800164B00221A61154B00229A61134803F090
:102F780091FC0346002B01D0FFF782FD4FF48053EC
:102F8800BB6007F1080319460C4804F02FF8034604
:102F9800002B01D0FFF774FD00233B6000237B600A
:102FA8003B461946054804F021FC0346002B01D096
:102FB800FFF766FD00BF1837BD4680BDA0020020A0
:102FC80080B588B000AF3B1D00221A605A609A6035
:102FD800DA601A615A619A611E4B1F4A1A601D4BCA
:102FE80040F247325A601B4B00229A60194B632209
:102FF800DA60184B00221A61164B00229A611548B4
:1030080003F048FC0346002B01D0FFF739FD1148B7
:1030180003F000FD0346002B01D0FFF731FD6023CC
:103028007B600023BB600023FB6000237B613B1DAA
:1030380000221946074803F017FF0346002B01D06A
:10304800FFF71EFD034800F045F800BF2037BD46D6
:1030580080BD00BFE8020020001C004080B584B09D
:1030680000AF78607B681B68B3F1804F16D10023EE
:10307800FB60164B1B6C154A43F001031364134B9A
:103088001B6C03F00103FB60FB68002200211C207D
:1030980000F045FE1C2000F05EFE12E07B681B6815
:1030A8000B4A93420DD10023BB60084B1B6C074AA7
:1030B80043F080031364054B1B6C03F08003BB6073
:1030C800BB6800BF1037BD4680BD00BF0038024056
:1030D800001C004080B588B000AF786007F10C0391
:1030E80000221A605A609A60DA601A617B681B686D
:1030F800124A93421ED10023BB60114B1B6B104A2E
:1031080043F0200313630E4B1B6B03F02003BB60DB
:10311800BB684FF48073FB6002233B6100237B6133
:103128000023BB610923FB6107F10C03194605481D
:1031380001F09CF900BF2037BD4680BD001C00404F
:10314800003802400014024080B483B000AF034648
:10315800FB71FB791B09DBB21A46920013445B0032
:10316800DAB2FB7903F00F03DBB21344DBB2184683
:103178000C37BD465DF8047B7047000080B483B00F
:1031880000AF0346FB71FB790D4AA2FB0323DB0862
:10319800DBB21B0158B2FA79094BA3FB0213D90819
:1031A8000B469B000B445B00D31ADBB25BB20343B4
:1031B8005BB2DBB218460C37BD465DF8047B70473E
:1031C800CDCCCCCCDFF834D00D480E490E4A0023C4
:1031D80002E0D458C4500433C4188C42F9D30B4AC3
:1031E8000B4C002301E013600432A242FBD3FFF72B
:1031F80089FE04F063FCFFF783F8704700000220A3
:10320800000000202000002044AB0008200000201F
:1032180034030020FEE7000080B500AF0E4B1B68AA
:103228000D4A43F4007313600B4B1B680A4A43F4BE
:1032380080631360084B1B68074A43F4807313606C
:10324800032000F061FD0F2000F008F8FFF7F4FDFF
:103258000023184680BD00BF003C024080B582B004
:1032680000AF7860124B1A68124B1B7819464FF45E
:103278007A73B3FBF1F3B2FBF3F3184600F079FD70
:103288000346002B01D001230EE07B680F2B0AD8E0
:10329800002279684FF0FF3000F041FD064A7B6854
:1032A8001360002300E0012318460837BD4680BD9F
:1032B800140000201C0000201800002080B400AF7B
:1032C800064B1B781A46064B1B681344044A1360C6
:1032D80000BFBD465DF8047B704700BF1C0000209E
:1032E8003003002080B400AF034B1B681846BD466E
:1032F8005DF8047B704700BF3003002080B584B0C0
:1033080000AF7860FFF7EEFFB8607B68FB60FB6892
:10331800B3F1FF3F05D00A4B1B781A46FB681344EC
:10332800FB6000BFFFF7DEFF0246BB68D31AFA68EE
:103338009A42F7D800BF00BF1037BD4680BD00BF16
:103348001C00002080B584B000AF78600023FB73B8
:103358007B68002B01D1012333E07B681B6C002BB9
:1033680009D17868FDF772FD7B6800225A647B6892
:10337800002283F83C207B681B6C03F01003002BB1
:1033880018D17B681B6C23F4885323F0020343F0A5
:1033980002027B681A64786800F068FA7B68002289
:1033A8005A647B681B6C23F0030343F001027B68BB
:1033B8001A6401E00123FB737B68002283F83C2038
:1033C800FB7B18461037BD4680BD000080B586B02F
:1033D80000AFF860B9607A6000233B61FB6893F83E
:1033E8003C30012B01D10223E9E0FB68012283F87C
:1033F8003C20FB681B689B6803F00103012B18D075
:10340800FB681B689A68FB681B6842F001029A60B7
:103418006D4B1B686D4AA2FB03239A0C13465B0095
:1034280013443B6102E03B69013B3B613B69002B74
:10343800F9D1FB681B689B6803F48073B3F5807F40
:1034480007D1FB681B689A68FB681B6822F48072C6
:103458009A60FB681B689B6803F00103012B40F02E
:10346800A180FB681B6C23F4E06323F0010343F4A1
:103478008072FB681A64FB681B685B6803F48063EE
:10348800002B07D0FB681B6C23F4405343F4805295
:10349800FB681A64FB681B6C03F48053B3F5805F08
:1034A80006D1FB685B6C23F00602FB685A6402E0F5
:1034B800FB6800225A64FB68002283F83C20444BD6
:1034C8007B61FB689B6B434ADA63FB689B6B424AF0
:1034D8001A64FB689B6B414ADA64FB681B686FF0EF
:1034E80022021A60FB681B685A68FB681B6842F076
:1034F80080625A60FB681B689A68FB681B6842F424
:1035080080729A60FB68986BFB681B684C3319469D
:10351800BA687B6800F0E8FC7B695B6803F01F030E
:10352800002B2AD1FB681B682D4A934215D0FB68F3
:103538001B682C4A934205D1254B5B6803F01F0397
:10354800002B0AD0FB681B68274A934236D1204BD0
:103558005B6803F01003002B30D1FB681B689B6885
:1035680003F04053002B29D1FB681B689A68FB685D
:103578001B6842F080429A6020E0FB681B68184A8A
:1035880093421BD1FB681B689B6803F04053002BD8
:1035980014D1FB681B689A68FB681B6842F080427C
:1035A8009A600BE0FB681B6C43F01002FB681A641E
:1035B800FB685B6C43F00102FB685A640023184601
:1035C8001837BD4680BD00BF1400002083DE1B43B2
:1035D800002301406D3A0008273B0008433B0008E0
:1035E80000200140002101400022014080B483B046
:1035F80000AF786000BF0C37BD465DF8047B7047AC
:1036080080B483B000AF786000BF0C37BD465DF86A
:10361800047B704780B483B000AF786000BF0C377C
:10362800BD465DF8047B704780B485B000AF786014
:1036380039600023BB607B6893F83C30012B01D1D3
:10364800022305E17B68012283F83C203B681B6864
:10365800092B25D97B681B68D9683B681B689BB216
:103668001A4613465B0013441E3B072202FA03F373
:10367800DA437B681B680A40DA607B681B68D96894
:103688003B689A683B681B689BB2184603465B0018
:1036980003441E3B9A407B681B680A43DA6022E0B9
:1036A8007B681B6819693B681B689BB21A461346FE
:1036B8005B001344072202FA03F3DA437B681B68B2
:1036C8000A401A617B681B6819693B689A683B68FD
:1036D8001B689BB2184603465B0003449A407B680C
:1036E8001B680A431A613B685B68062B24D87B6811
:1036F8001B68596B3B685A6813469B001344053B8B
:103708001F2202FA03F3DA437B681B680A405A63F4
:103718007B681B68596B3B681B689BB218463B6803
:103728005A6813469B001344053B00FA03F27B6872
:103738001B680A435A634CE03B685B680C2B24D82F
:103748007B681B68196B3B685A6813469B001344D7
:10375800233B1F2202FA03F3DA437B681B680A4003
:103768001A637B681B68196B3B681B689BB2184619
:103778003B685A6813469B001344233B00FA03F244
:103788007B681B680A431A6323E07B681B68D96A55
:103798003B685A6813469B001344413B1F2202FAB8
:1037A80003F3DA437B681B680A40DA627B681B68AC
:1037B800D96A3B681B689BB218463B685A6813462F
:1037C8009B001344413B00FA03F27B681B680A43E1
:1037D800DA62224BFB607B681B68214A934209D15D
:1037E8003B681B68122B05D1FB685B6843F48002B9
:1037F800FB685A607B681B68194A934223D13B686F
:103808001B68102B03D03B681B68112B1BD1FB686E
:103818005B6843F40002FB685A603B681B68102B26
:1038280011D1104B1B68104AA2FB03239A0C1346B4
:103838009B0013445B00BB6002E0BB68013BBB60BC
:10384800BB68002BF9D17B68002283F83C20002359
:1038580018461437BD465DF8047B704700230140C5
:10386800002001401400002083DE1B4380B485B093
:1038780000AF7860794BFB60FB685B6823F44032EB
:10388800FB685A60FB685A687B685B681A43FB6888
:103898005A607B681B685A687B681B6822F48072D0
:1038A8005A607B681B6859687B681B691A027B68C9
:1038B8001B680A435A607B681B685A687B681B68E8
:1038C80022F040725A607B681B6859687B689A6866
:1038D8007B681B680A435A607B681B689A687B6828
:1038E8001B6822F400629A607B681B6899687B6891
:1038F800DA687B681B680A439A607B689B6A584A47
:10390800934222D07B681B689A687B681B6822F008
:1039180070629A607B681B6899687B689A6A7B68A2
:103928001B680A439A607B681B689A687B681B68F7
:1039380022F040529A607B681B6899687B68DA6A53
:103948007B681B680A439A600FE07B681B689A686B
:103958007B681B6822F070629A607B681B689A68B3
:103968007B681B6822F040529A607B681B689A68E3
:103978007B681B6822F002029A607B681B68996862
:103988007B681B7E5A007B681B680A439A607B68C9
:1039980093F82030002B1BD07B681B685A687B6823
:1039A8001B6842F400625A607B681B685A687B682F
:1039B8001B6822F460425A607B681B6859687B6800
:1039C8005B6A013B5A037B681B680A435A6007E03D
:1039D8007B681B685A687B681B6822F400625A601F
:1039E8007B681B68DA6A7B681B6822F47002DA62FB
:1039F8007B681B68D96A7B68DB69013B1A057B68B1
:103A08001B680A43DA627B681B689A687B681B68D4
:103A180022F400729A607B681B6899687B6893F847
:103A280030305A027B681B680A439A607B681B68BF
:103A38009A687B681B6822F480629A607B681B68BE
:103A480099687B685B699A027B681B680A439A607D
:103A580000BF1437BD465DF8047B70470023014062
:103A68000100000F80B584B000AF78607B689B6B65
:103A7800FB60FB681B6C03F05003002B3CD1FB6818
:103A88001B6C43F40072FB681A64FB681B689B6834
:103A980003F04053002B2BD1FB681B7E002B27D152
:103AA800FB681B68DB6A03F47003002B06D0FB6815
:103AB8001B689B6803F48063002B19D1FB681B68A3
:103AC8005A68FB681B6822F020025A60FB681B6C6E
:103AD80023F48072FB681A64FB681B6C03F4805340
:103AE800002B05D1FB681B6C43F00102FB681A64CC
:103AF800F868FFF77BFD0EE0FB681B6C03F0100312
:103B0800002B03D0F868FFF785FD04E0FB689B6B8A
:103B1800DB6C7868984700BF1037BD4680BD80B51C
:103B280084B000AF78607B689B6BFB60F868FFF738
:103B380067FD00BF1037BD4680BD80B584B000AFBB
:103B480078607B689B6BFB60FB6840221A64FB68AB
:103B58005B6C43F00402FB685A64F868FFF75AFD8F
:103B680000BF1037BD4680BD80B485B000AF786017
:103B78007B6803F00703FB600C4BDB68BB60BA682B
:103B88004FF6FF031340BB60FB681A02BB68134380
:103B980043F0BF6343F40033BB60044ABB68D3609F
:103BA80000BF1437BD465DF8047B704700ED00E0A8
:103BB80080B400AF044BDB681B0A03F00703184608
:103BC800BD465DF8047B704700ED00E080B483B02B
:103BD80000AF0346FB7197F90730002B0BDBFB792D
:103BE80003F01F02074997F907305B09012000FA23
:103BF80002F241F8232000BF0C37BD465DF8047B74
:103C0800704700BF00E100E080B483B000AF034616
:103C18003960FB7197F90730002B0ADB3B68DAB291
:103C28000C4997F907301201D2B20B4483F80023EC
:103C38000AE03B68DAB20849FB7903F00F03043B5A
:103C48001201D2B20B441A7600BF0C37BD465DF89C
:103C5800047B704700E100E000ED00E080B489B02B
:103C680000AFF860B9607A60FB6803F00703FB6196
:103C7800FB69C3F10703042B28BF0423BB61FB695D
:103C88000433062B02D9FB69033B00E000237B6168
:103C98004FF0FF32BB6902FA03F3DA43BB681A40FC
:103CA8007B699A404FF0FF317B6901FA03F3D943EE
:103CB8007B680B40134318462437BD465DF8047BE8
:103CC8007047000080B582B000AF78607B68013B28
:103CD800B3F1807F01D301230FE00A4A7B68013BDF
:103CE80053600F214FF0FF30FFF78EFF054B002286
:103CF8009A60044B07221A60002318460837BD460D
:103D080080BD00BF10E000E080B582B000AF7860F1
:103D18007868FFF729FF00BF0837BD4680BD80B52A
:103D280086B000AF0346B9607A60FB7300237B61FD
:103D3800FFF73EFF78617A68B9687869FFF78EFF08
:103D4800024697F90F3011461846FFF75DFF00BF8E
:103D58001837BD4680BD80B582B000AF0346FB7101
:103D680097F907301846FFF731FF00BF0837BD46FF
:103D780080BD80B582B000AF78607868FFF7A2FF99
:103D8800034618460837BD4680BD000080B586B09A
:103D980000AF786000237B61FFF7A4FA38617B6885
:103DA800002B01D1012399E07B68022283F835209A
:103DB8007B68002283F834207B681B681A687B685C
:103DC8001B6822F001021A600FE0FFF78BFA024627
:103DD8003B69D31A052B08D97B6820225A657B6872
:103DE800032283F83520032378E07B681B681B686F
:103DF80003F00103002BE8D17B681B681B687B611B
:103E08007A69384B13407B617B685A687B689B688A
:103E18001A437B68DB681A437B681B691A437B6813
:103E28005B691A437B689B691A437B68DB691A43A1
:103E38007B681B6A13437A6913437B617B685B6AFF
:103E4800042B07D17B68DA6A7B681B6B13437A699A
:103E580013437B617B681B687A691A607B681B68FF
:103E68005B697B617B6923F007037B617B685B6A25
:103E78007A6913437B617B685B6A042B17D17B6883
:103E88009B6A7A6913437B617B68DB6A002B0ED0DF
:103E9800786800F06FFA0346002B08D07B68402250
:103EA8005A657B68012283F83520012316E07B6878
:103EB8001B687A695A61786800F026FA0346FB6045
:103EC8007B68DB6D3F229A40FB689A607B68002222
:103ED8005A657B68012283F8352000231846183775
:103EE800BD4680BD3F8010F080B586B000AFF86059
:103EF800B9607A603B600023FB75FB689B6D3B6192
:103F0800FB6893F83430012B01D1022340E0FB68B1
:103F1800012283F83420FB6893F83530DBB2012B9B
:103F28002FD1FB68022283F83520FB6800225A65EE
:103F38003B687A68B968F86800F0B8F9FB68DB6D27
:103F48003F229A403B699A60FB681B681A68FB68C5
:103F58001B6842F016021A60FB681B6C002B07D026
:103F6800FB681B681A68FB681B6842F008021A6045
:103F7800FB681B681A68FB681B6842F001021A603C
:103F880005E0FB68002283F834200223FB75FB7DE3
:103F980018461837BD4680BD80B586B000AF78603A
:103FA8000023BB608E4B1B688E4AA2FB03239B0A2F
:103FB8007B617B689B6D3B613B691B68FB607B6831
:103FC800DB6D08229A40FB681340002B1AD07B68EF
:103FD8001B681B6803F00403002B13D07B681B6865
:103FE8001A687B681B6822F004021A607B68DB6D24
:103FF80008229A403B699A607B685B6D43F0010236
:104008007B685A657B68DB6D01229A40FB68134028
:10401800002B12D07B681B685B6903F08003002BC0
:104028000BD07B68DB6D01229A403B699A607B6804
:104038005B6D43F002027B685A657B68DB6D042286
:104048009A40FB681340002B12D07B681B681B68E2
:1040580003F00203002B0BD07B68DB6D04229A402F
:104068003B699A607B685B6D43F004027B685A6524
:104078007B68DB6D10229A40FB681340002B43D00D
:104088007B681B681B6803F00803002B3CD07B6827
:10409800DB6D10229A403B699A607B681B681B683D
:1040A80003F48023002B18D07B681B681B6803F47B
:1040B8000023002B08D17B681B6C002B24D07B6865
:1040C8001B6C786898471FE07B689B6C002B1BD0A3
:1040D8007B689B6C7868984716E07B681B681B6850
:1040E80003F48073002B07D17B681B681A687B6810
:1040F8001B6822F008021A607B681B6C002B03D037
:104108007B681B6C786898477B68DB6D20229A4037
:10411800FB681340002B00F08F807B681B681B68CE
:1041280003F01003002B00F087807B68DB6D2022F2
:104138009A403B699A607B6893F83530DBB2052B6F
:1041480036D17B681B681A687B681B6822F01602E8
:104158001A607B681B685A697B681B6822F08002BA
:104168005A617B681B6C002B03D17B689B6C002B0E
:1041780007D07B681B681A687B681B6822F00802F6
:104188001A607B68DB6D3F229A403B699A607B68C6
:10419800012283F835207B68002283F834207B686D
:1041A8001B6D002B7ED07B681B6D7868984779E083
:1041B8007B681B681B6803F48023002B1DD07B6879
:1041C8001B681B6803F40023002B0DD17B685B6C14
:1041D800002B31D07B685B6C786898472CE000BF77
:1041E80014000020B5814E1B7B68DB6B002B23D0AD
:1041F8007B68DB6B786898471EE07B681B681B68E8
:1042080003F48073002B0FD17B681B681A687B68E6
:104218001B6822F010021A607B68012283F835209F
:104228007B68002283F834207B68DB6B002B03D08B
:104238007B68DB6B786898477B685B6D002B32D0B6
:104248007B685B6D03F00103002B22D07B6805229D
:1042580083F835207B681B681A687B681B6822F026
:1042680001021A60BB680133BB607A699A4207D3BE
:104278007B681B681B6803F00103002BF2D100E088
:1042880000BF7B68012283F835207B68002283F811
:1042980034207B68DB6C002B05D07B68DB6C78688E
:1042A800984700E000BF1837BD4680BD80B485B090
:1042B80000AFF860B9607A603B60FB681B681A68F9
:1042C800FB681B6822F480221A60FB681B683A6846
:1042D8005A60FB689B68402B08D1FB681B687A68AA
:1042E8009A60FB681B68BA68DA6007E0FB681B68BD
:1042F800BA689A60FB681B687A68DA6000BF14378E
:10430800BD465DF8047B704780B485B000AF786027
:104318007B681B68DBB2103B144AA2FB03231B0912
:10432800FB60134AFB6813441B781A467B68DA65FE
:10433800FB68032B09D97B681B6823F47F7323F080
:1043480003031A1D7B689A6507E07B681B6823F4E2
:104358007F7323F003037A6893657B689B6D184627
:104368001437BD465DF8047B704700BFABAAAAAA04
:104378002CAB000880B485B000AF78600023FB73D5
:104388007B689B6ABB607B689B69002B1FD1BB68FD
:10439800032B56D801A252F823F000BFB5430008FA
:1043A800C7430008B54300084B4400087B68DB6A34
:1043B80003F08073002B46D00123FB7343E07B6836
:1043C800DB6AB3F1C07F40D10123FB733DE07B681A
:1043D8009B69B3F5005F21D1BB68032B37D801A2D5
:1043E80052F823F0FD43000803440008FD43000889
:1043F800154400080123FB7330E07B68DB6A03F097
:104408008073002B25D00123FB7322E07B68DB6AD5
:10441800B3F1C07F1FD10123FB731CE0BB68022BE3
:1044280003D9BB68032B03D018E00123FB7315E005
:104438007B68DB6A03F08073002B0ED00123FB73CB
:104448000BE000BF0AE000BF08E000BF06E000BFC5
:1044580004E000BF02E000BF00E000BFFB7B18469D
:104468001437BD465DF8047B704700BF80B489B03F
:1044780000AF7860396000237B6100233B61002333
:10448800BB610023FB616BE10122FB6902FA03F3C4
:104498007B613B681B687A6913403B613A697B69B9
:1044A8009A4240F05A813B685B6803F00303012B92
:1044B80005D03B685B6803F00303022B30D17B68AF
:1044C8009B68BB61FB695B00032202FA03F3DB43D1
:1044D800BA691340BB613B68DA68FB695B0002FAA2
:1044E80003F3BA691343BB617B68BA699A607B6856
:1044F8005B68BB610122FB6902FA03F3DB43BA691B
:104508001340BB613B685B681B0903F00102FB6950
:1045180002FA03F3BA691343BB617B68BA695A604C
:104528003B685B6803F00303032B17D07B68DB68E9
:10453800BB61FB695B00032202FA03F3DB43BA6940
:104548001340BB613B689A68FB695B0002FA03F39E
:10455800BA691343BB617B68BA69DA603B685B6818
:1045680003F00303022B23D1FB69DA087B680832C6
:1045780053F82230BB61FB6903F007039B000F224D
:1045880002FA03F3DB43BA691340BB613B681A695B
:10459800FB6903F007039B0002FA03F3BA691343AC
:1045A800BB61FB69DA087B680832B96943F82210F5
:1045B8007B681B68BB61FB695B00032202FA03F39B
:1045C800DB43BA691340BB613B685B6803F00302D5
:1045D800FB695B0002FA03F3BA691343BB617B68AA
:1045E800BA691A603B685B6803F44033002B00F03B
:1045F800B4800023FB60604B5B6C5F4A43F48043EC
:1046080053645D4B5B6C03F48043FB60FB685B4A5F
:10461800FB699B08023352F82330BB61FB6903F046
:1046280003039B000F2202FA03F3DB43BA6913402A
:10463800BB617B68524A93422BD07B68514A9342B4
:1046480025D07B68504A93421FD07B684F4A9342DB
:1046580019D07B684E4A934213D07B684D4A9342E7
:104668000DD07B684C4A934207D07B684B4A9342F3
:1046780001D107230EE008230CE006230AE00523F6
:1046880008E0042306E0032304E0022302E00123F8
:1046980000E00023FA6902F0030292009340BA692D
:1046A8001343BB613549FB699B080233BA6941F87A
:1046B80023203B4B1B68BB613B69DB43BA69134052
:1046C800BB613B685B6803F48033002B03D0BA6995
:1046D8003B691343BB61324ABB691360304B5B686B
:1046E800BB613B69DB43BA691340BB613B685B68EC
:1046F80003F40033002B03D0BA693B691343BB6151
:10470800274ABB695360264B9B68BB613B69DB4307
:10471800BA691340BB613B685B6803F48013002BE4
:1047280003D0BA693B691343BB611D4ABB699360F7
:104738001B4BDB68BB613B69DB43BA691340BB6158
:104748003B685B6803F40013002B03D0BA693B692C
:104758001343BB61124ABB69D360FB690133FB6138
:10476800FB690F2B7FF690AE00BF00BF2437BD4614
:104778005DF8047B704700BF0038024000380140F4
:10478800000002400004024000080240000C024001
:10479800001002400014024000180240001C0240B1
:1047A800003C014080B483B000AF78600B467B804A
:1047B80013467B707B78002B03D07A887B689A61DC
:1047C80003E07B881A047B689A6100BF0C37BD46FA
:1047D8005DF8047B7047000080B584B000AF786056
:1047E8007B68002B01D101232BE17B6893F83D30D6
:1047F800DBB2002B06D17B68002283F83C20786866
:10480800FCF732FF7B68242283F83D207B681B6815
:104818001A687B681B6822F001021A607B681B68B3
:104828001A687B681B6842F400421A607B681B6840
:104838001A687B681B6822F400421A6001F02AFAA1
:10484800F8607B685B68814A934207D8FB68804AB6
:10485800934294BF01230023DBB206E0FB687D4A44
:10486800934294BF01230023DBB2002B01D0012324
:10487800E7E0FB68784AA2FB03239B0CBB607B68DC
:104888001B685B6823F03F017B681B68BA680A43B2
:104898005A607B681B681B6A23F03F017B685B6872
:1048A8006A4A934202D8BB68013309E0BB684FF4F7
:1048B800967202FB03F3694AA2FB03239B090133A7
:1048C8007A6812680B4313627B681B68DB6923F400
:1048D8004F4222F0FF027B685B685C498B4219D823
:1048E800FB68591E7B685B685B00B1FBF3F3591CDE
:1048F80040F6FC730B40002B0AD0FB68591E7B68FE
:104908005B685B00B1FBF3F30133C3F30B0351E0C6
:1049180004234FE07B689B68002B11D1FB68581E6D
:104928007B6859680B465B000B44B0FBF3F301331B
:10493800C3F30B03002B0CBF01230023DBB212E0EF
:10494800FB68581E7B6859680B469B000B4499000E
:104958000B44B0FBF3F30133C3F30B03002B0CBF81
:1049680001230023DBB2002B01D0012322E07B6866
:104978009B68002B0ED1FB68581E7B6859680B4654
:104988005B000B44B0FBF3F30133C3F30B0343F4B5
:1049980000430FE0FB68581E7B6859680B469B0074
:1049A8000B4499000B44B0FBF3F30133C3F30B033F
:1049B80043F44043796809681343CB617B681B68FB
:1049C8001B6823F0C0017B68DA697B681B6A1A439D
:1049D8007B681B680A431A607B681B689B6823F422
:1049E800034323F0FF037A6811697A68D268114398
:1049F8007A6812680B4393607B681B68DB6823F056
:104A0800FF017B685A697B689B691A437B681B684E
:104A18000A43DA607B681B681A687B681B6842F087
:104A280001021A607B6800221A647B68202283F8DE
:104A38003D207B6800221A637B68002283F83E20B1
:104A4800002318461037BD4680BD00BFA086010070
:104A58007F841E00FF083D0083DE1B43D34D621098
:104A680080B58CB002AFF860084611461A46034676
:104A78007B810B463B811346FB80FEF733FC786253
:104A8800FB6893F83D30DBB2202B40F008827B6A4C
:104A98000093192301227B49F86800F0EFFA0346D6
:104AA800002B01D00223FBE1FB6893F83C30012B7B
:104AB80001D10223F4E1FB68012283F83C20FB6862
:104AC8001B681B6803F00103012B07D0FB681B68F8
:104AD8001A68FB681B6842F001021A60FB681B68D1
:104AE8001A68FB681B6822F400621A60FB682222BD
:104AF80083F83D20FB68402283F83E20FB680022B3
:104B08001A64FB683A6B5A62FB68BA8E5A85FB686E
:104B18005B8D9AB2FB681A85FB685B4ADA62F88893
:104B28003A8979897B6A0193BB6B00930346F868DD
:104B380000F0BCF90346002B01D00123B0E1FB686B
:104B48001B8D002B13D100233B62FB681B685B693C
:104B58003B62FB681B689B693B623B6AFB681B689E
:104B68001A68FB681B6842F400721A6084E1FB68EB
:104B78001B8D012B1BD1FB681B681A68FB681B681F
:104B880022F480621A600023FB61FB681B685B6982
:104B9800FB61FB681B689B69FB61FB69FB681B6821
:104BA8001A68FB681B6842F400721A6064E1FB68CB
:104BB8001B8D022B1BD1FB681B681A68FB681B68DE
:104BC80022F480621A60FB681B681A68FB681B681D
:104BD80042F400621A600023BB61FB681B685B69D2
:104BE800BB61FB681B689B69BB61BB6944E100232F
:104BF8007B61FB681B685B697B61FB681B689B6961
:104C08007B617B6938E1FB681B8D032B00F2F18027
:104C1800FB681B8D012B23D17A6AB96BF86800F009
:104C280044FB0346002B01D0012339E1FB681B68D4
:104C38001A69FB685B6AD2B21A70FB685B6A5A1C15
:104C4800FB685A62FB681B8D013B9AB2FB681A85A8
:104C5800FB685B8D9BB2013B9AB2FB685A850BE1FE
:104C6800FB681B8D022B4ED17B6A0093BB6B002225
:104C78000649F86800F002FA0346002B08D0012321
:104C88000EE100BF020010000000FFFF0400010059
:104C9800FB681B681A68FB681B6842F400721A609C
:104CA800FB681B681A69FB685B6AD2B21A70FB68FA
:104CB8005B6A5A1CFB685A62FB681B8D013B9AB2FF
:104CC800FB681A85FB685B8D9BB2013B9AB2FB6857
:104CD8005A85FB681B681A69FB685B6AD2B21A704E
:104CE800FB685B6A5A1CFB685A62FB681B8D013BB8
:104CF8009AB2FB681A85FB685B8D9BB2013B9AB23E
:104D0800FB685A85B8E07B6A0093BB6B0022664952
:104D1800F86800F0B3F90346002B01D00123BFE087
:104D2800FB681B681A68FB681B6822F480621A60BB
:104D3800FB681B681A69FB685B6AD2B21A70FB6869
:104D48005B6A5A1CFB685A62FB681B8D013B9AB26E
:104D5800FB681A85FB685B8D9BB2013B9AB2FB68C6
:104D68005A857B6A0093BB6B00224F49F86800F0B4
:104D780085F90346002B01D0012391E0FB681B68ED
:104D88001A68FB681B6842F400721A60FB681B68AB
:104D98001A69FB685B6AD2B21A70FB685B6A5A1CB4
:104DA800FB685A62FB681B8D013B9AB2FB681A8547
:104DB800FB685B8D9BB2013B9AB2FB685A85FB6826
:104DC8001B681A69FB685B6AD2B21A70FB685B6A77
:104DD8005A1CFB685A62FB681B8D013B9AB2FB6840
:104DE8001A85FB685B8D9BB2013B9AB2FB685A85BA
:104DF80042E07A6AB96BF86800F057FA0346002B6C
:104E080001D001234CE0FB681B681A69FB685B6AE8
:104E1800D2B21A70FB685B6A5A1CFB685A62FB685C
:104E28001B8D013B9AB2FB681A85FB685B8D9BB2B0
:104E3800013B9AB2FB685A85FB681B685B6903F003
:104E48000403042B18D1FB681B681A69FB685B6AAA
:104E5800D2B21A70FB685B6A5A1CFB685A62FB681C
:104E68001B8D013B9AB2FB681A85FB685B8D9BB270
:104E7800013B9AB2FB685A85FB681B8D002B7FF4B7
:104E8800C2AEFB68202283F83D20FB68002283F82D
:104E98003E20FB68002283F83C20002300E0022328
:104EA80018462837BD4680BD0400010080B588B08B
:104EB80002AFF860084611461A4603467B810B4646
:104EC8003B811346FB80FB681B681A68FB681B68FC
:104ED80042F480621A60FB681B681A68FB681B68EA
:104EE80042F480721A607B6A00933B6A00224FF09A
:104EF8000111F86800F0C2F80346002B0DD0FB68DA
:104F08001B681B6803F48073B3F5807F03D1FB68CB
:104F18004FF400721A640323AAE07B89DBB21A46B5
:104F2800FB681B6802F0FE021A617B6A3A6A524902
:104F3800F86800F0FAF80346002B01D0012397E047
:104F480000237B61FB681B685B697B61FB681B68EE
:104F58009B697B617B697A6A396AF86800F064F951
:104F68000346002B0DD0FB681B6C042B07D1FB6894
:104F78001B681A68FB681B6842F400721A600123F8
:104F880076E0FB88012B05D13B89DAB2FB681B6808
:104F98001A6121E03B891B0A9BB2DAB2FB681B68E5
:104FA8001A617A6A396AF86800F03EF90346002BFC
:104FB8000DD0FB681B6C042B07D1FB681B681A68B3
:104FC800FB681B6842F400721A60012350E03B89B9
:104FD800DAB2FB681B681A617A6A396AF86800F005
:104FE80023F90346002B0DD0FB681B6C042B07D15B
:104FF800FB681B681A68FB681B6842F400721A6039
:10500800012335E0FB681B681A68FB681B6842F4DB
:1050180080721A607B6A00933B6A00224FF001118C
:10502800F86800F02BF80346002B0DD0FB681B68CE
:105038001B6803F48073B3F5807F03D1FB684FF4DA
:1050480000721A64032313E07B89DBB243F0010387
:10505800DAB2FB681B681A617B6A3A6A0649F86823
:1050680000F063F80346002B01D0012300E0002381
:1050780018461837BD4680BD0200010080B584B0CF
:1050880000AFF860B9603B601346FB7125E03B68F0
:10509800B3F1FF3F21D0FEF725F90246BB69D31AC9
:1050A8003A689A4202D33B68002B16D1FB6800226B
:1050B8001A63FB68202283F83D20FB68002283F8EE
:1050C8003E20FB681B6C43F02002FB681A64FB68F7
:1050D800002283F83C20012323E0BB681B0CDBB2D1
:1050E800012B0DD1FB681B685B69DA43BB68134071
:1050F8009BB2002B0CBF01230023DBB21A460CE045
:10510800FB681B689B69DA43BB6813409BB2002BA2
:105118000CBF01230023DBB21A46FB799A42B6D0B2
:10512800002318461037BD4680BD80B584B000AF57
:10513800F860B9607A603B6051E0FB681B685B69A6
:1051480003F48063B3F5806F23D1FB681B681A688A
:10515800FB681B6842F400721A60FB681B686FF4F6
:1051680080625A61FB6800221A63FB68202283F878
:105178003D20FB68002283F83E20FB681B6C43F04F
:105188000402FB681A64FB68002283F83C200123B0
:1051980046E07B68B3F1FF3F21D0FEF7A3F8024653
:1051A8003B68D31A7A689A4202D37B68002B16D1DF
:1051B800FB6800221A63FB68202283F83D20FB6805
:1051C800002283F83E20FB681B6C43F02002FB683A
:1051D8001A64FB68002283F83C20012320E0BB68A6
:1051E8001B0CDBB2012B0CD1FB681B685B69DA4333
:1051F800BB6813409BB2002B14BF01230023DBB212
:105208000BE0FB681B689B69DA43BB6813409BB2E1
:10521800002B14BF01230023DBB2002B8DD1002308
:1052280018461037BD4680BD80B584B000AFF86021
:10523800B9607A602DE0F86800F08DF80346002B1D
:1052480001D001232DE0BB68B3F1FF3F21D0FEF769
:1052580049F802467B68D31ABA689A4202D3BB68F7
:10526800002B16D1FB6800221A63FB68202283F802
:105278003D20FB68002283F83E20FB681B6C43F04E
:105288002002FB681A64FB68002283F83C20012393
:1052980007E0FB681B685B6903F08003802BCAD1B9
:1052A800002318461037BD4680BD80B584B000AFD6
:1052B800F860B9607A6042E0FB681B685B6903F0DC
:1052C8001003102B19D1FB681B686FF010025A618C
:1052D800FB6800221A63FB68202283F83D20FB68E4
:1052E800002283F83E20FB681A6CFB681A64FB688E
:1052F800002283F83C20012329E0FDF7F3FF024652
:105308007B68D31ABA689A4202D3BB68002B16D1BD
:10531800FB6800221A63FB68202283F83D20FB68A3
:10532800002283F83E20FB681B6C43F02002FB68D8
:105338001A64FB68002283F83C20012307E0FB681D
:105348001B685B6903F04003402BB5D10023184666
:105358001037BD4680BD80B483B000AF78607B68ED
:105368001B685B6903F48063B3F5806F1BD17B68AE
:105378001B686FF480625A617B6800221A637B683D
:10538800202283F83D207B68002283F83E207B683A
:105398001B6C43F004027B681A647B68002283F864
:1053A8003C20012300E0002318460C37BD465DF879
:1053B800047B704780B586B000AF78607B68002BAF
:1053C80001D1012367E27B681B6803F00103002B0E
:1053D80075D0884B9B6803F00C03042B0CD0854BCD
:1053E8009B6803F00C03082B12D1824B5B6803F413
:1053F8008003B3F5800F0BD17E4B1B6803F4003399
:10540800002B5BD07B685B68002B57D1012342E2FD
:105418007B685B68B3F5803F06D1764B1B68754A9D
:1054280043F4803313601DE07B685B68B3F5A02FFD
:105438000CD1704B1B686F4A43F4802313606D4B8B
:105448001B686C4A43F4803313600BE0694B1B689C
:10545800684A23F480331360664B1B68654A23F45B
:10546800802313607B685B68002B13D0FDF73AFF3D
:10547800386108E0FDF736FF02463B69D31A642B12
:1054880001D9032307E25B4B1B6803F40033002BAD
:10549800F0D014E0FDF726FF386108E0FDF722FFA1
:1054A80002463B69D31A642B01D90323F3E1514B1C
:1054B8001B6803F40033002BF0D100E000BF7B68C9
:1054C8001B6803F00203002B63D04A4B9B6803F070
:1054D8000C03002B0BD0474B9B6803F00C03082BE5
:1054E8001CD1444B5B6803F48003002B16D1414B5D
:1054F8001B6803F00203002B05D07B68DB68012BD7
:1055080001D00123C7E13B4B1B6823F0F8027B68FD
:105518001B69DB00374913430B603AE07B68DB68A3
:10552800002B20D0344B01221A60FDF7DBFE3861D6
:1055380008E0FDF7D7FE02463B69D31A022B01D9D2
:105548000323A8E12B4B1B6803F00203002BF0D0C8
:10555800284B1B6823F0F8027B681B69DB00254990
:1055680013430B6015E0244B00221A60FDF7BAFEC6
:10557800386108E0FDF7B6FE02463B69D31A022BF4
:1055880001D9032387E11B4B1B6803F00203002B9F
:10559800F0D17B681B6803F00803002B36D07B68CA
:1055A8005B69002B16D0154B01221A60FDF79AFE95
:1055B800386108E0FDF796FE02463B69D31A022BD4
:1055C80001D9032367E10B4B5B6F03F00203002B48
:1055D800F0D01BE0094B00221A60FDF783FE38610A
:1055E8000EE0FDF77FFE02463B69D31A022B07D96E
:1055F800032350E10038024000004742800E474232
:10560800884B5B6F03F00203002BEAD17B681B68B1
:1056180003F00403002B00F097800023FB75814BF7
:105628001B6C03F08053002B0FD10023BB607D4B14
:105638001B6C7C4A43F0805313647A4B1B6C03F059
:105648008053BB60BB680123FB75774B1B6803F471
:105658008073002B18D1744B1B68734A43F4807312
:105668001360FDF73FFE386108E0FDF73BFE024698
:105678003B69D31A022B01D903230CE16A4B1B683F
:1056880003F48073002BF0D07B689B68012B06D154
:10569800644B1B6F634A43F0010313671CE07B688C
:1056A8009B68052B0CD15F4B1B6F5E4A43F00403CC
:1056B80013675C4B1B6F5B4A43F0010313670BE0F6
:1056C800584B1B6F574A23F001031367554B1B6F49
:1056D800544A23F0040313677B689B68002B15D09A
:1056E800FDF700FE38610AE0FDF7FCFD02463B6964
:1056F800D31A41F28832934201D90323CBE0494BB4
:105708001B6F03F00203002BEED014E0FDF7EAFD57
:1057180038610AE0FDF7E6FD02463B69D31A41F21B
:105728008832934201D90323B5E03E4B1B6F03F047
:105738000203002BEED1FB7D012B05D1394B1B6CED
:10574800384A23F0805313647B689B69002B00F070
:10575800A180344B9B6803F00C03082B5CD07B685A
:105768009B69022B41D1314B00221A60FDF7BAFD2B
:10577800386108E0FDF7B6FD02463B69D31A022BF3
:1057880001D9032387E0274B1B6803F00073002B24
:10579800F0D17B68DA697B681B6A1A437B685B6AAD
:1057A8009B011A437B689B6A5B08013B1B041A43F5
:1057B8007B68DB6A1B061B4913434B601B4B0122AA
:1057C8001A60FDF78FFD386108E0FDF78BFD024692
:1057D8003B69D31A022B01D903235CE0114B1B68E8
:1057E80003F00073002BF0D054E0104B00221A6035
:1057F800FDF778FD386108E0FDF774FD02463B6966
:10580800D31A022B01D9032345E0064B1B6803F08A
:105818000073002BF0D13DE07B689B69012B07D119
:10582800012338E000380240007000406000474221
:105838001B4B5B68FB607B689B69012B28D0FB686E
:1058480003F480027B68DB699A4221D1FB6803F08C
:105858003F027B681B6A9A421AD1FA6847F6C073FE
:1058680013407A68526A9201934211D1FB6803F49B
:1058780040327B689B6A5B08013B1B049A4207D154
:10588800FB6803F070627B68DB6A1B069A4201D0F2
:10589800012300E0002318461837BD4680BD00BF2D
:1058A8000038024080B584B000AF786039607B680A
:1058B800002B01D10123CCE0684B1B6803F00703E0
:1058C8003A689A420CD9654B3A68D2B21A70634B5F
:1058D8001B6803F007033A689A4201D00123B8E035
:1058E8007B681B6803F00203002B20D07B681B68D1
:1058F80003F00403002B05D0594B9B68584A43F426
:10590800E05393607B681B6803F00803002B05D005
:10591800534B9B68524A43F460439360504B9B68D7
:1059280023F0F0027B689B684D4913438B607B68CA
:105938001B6803F00103002B44D07B685B68012BD4
:1059480007D1474B1B6803F40033002B19D10123FF
:105958007FE07B685B68022B03D07B685B68032B66
:1059680007D13F4B1B6803F00073002B09D10123BB
:105978006FE03B4B1B6803F00203002B01D10123AE
:1059880067E0374B9B6823F003027B685B68344908
:1059980013438B60FDF7A6FCF8600AE0FDF7A2FC54
:1059A8000246FB68D31A41F28832934201D9032395
:1059B8004FE02B4B9B6803F00C027B685B689B00F5
:1059C8009A42EBD1254B1B6803F007033A689A42C9
:1059D8000CD2224B3A68D2B21A70204B1B6803F0E3
:1059E80007033A689A4201D0012332E07B681B68BA
:1059F80003F00403002B08D0194B9B6823F4E052F2
:105A08007B68DB68164913438B607B681B6803F06F
:105A18000803002B09D0124B9B6823F460427B6873
:105A28001B69DB000E4913438B6000F021F8024626
:105A38000B4B9B681B0903F00F030A49CB5C22FA46
:105A480003F3094A1360094B1B681846FDF706FC67
:105A5800002318461037BD4680BD00BF003C0240F9
:105A68000038024014AB0008140000201800002081
:105A78002DE9B04F94B000AF00237B640023FB6492
:105A880000233B640023BB64794B9B6803F00C0341
:105A9800082B0DD0082B00F2E180002B02D0042B3C
:105AA80003D0DBE0734BBB64DBE0734BBB64D8E033
:105AB8006F4B5B6803F03F037B646D4B5B6803F4DB
:105AC8008003002B63D06A4B5B689B090022BB6391
